:02000000FD2BD6
:100778002030831685009F01073083129900850178
:100788000800BC23E0232108A8002008A7002708A8
:1007980028040319D12B8510D22B85140330A60009
:1007A8008A30A5005530A400A40BD82BA50BD82B54
:1007B800A60BD82BDF2BC62B831205160330A200FD
:1007C800A20BE42B83120512851EE82B1130A3001F
:1007D800E130A200A20BEE2BA30BEE2B8312851E99
:1007E800FA2B0130A0000030A1000800A001A101EF
:0607F80008008301C52B7F
:02400E00C431BB
:00000001FF
